:02000004F90001
:10000000971100009381013817210000130181B975
:100010001715000013054588971500009385C587BF
:100020001386C18163FCC5008322050023A055000F
:100030001305450093854500E3E8C5FE1385C1819E
:10004000938501826378B5002320050013054500E0
:10005000E36CB5FEEF000001EF00D0006F00000080
:0400600067800000B5
:10006400130101FF23248100232021011714000020
:1000740013044482171900001309C9813309894004
:10008400232611002322910013592940630E0900ED
:100094009304000083270400938414001304440091
:1000A400E7800700E31899FE170400001304847E18
:1000B400170900001309097E33098940135929409F
:1000C400630E090093040000832704009384140042
:1000D40013044400E7800700E31899FE8320C1005D
:1000E4000324810083244100032901001301010139
:1000F4006780000003254500135505011375F50FAE
:1001040067800000130101FF2326110023248100CE
:1001140023229100130405009384050013050400B1
:10012400EFF05FFDE30C05FE232094008320C10063
:10013400032481008324410013010101678000002E
:10014400130101FF2326110023248100232291009F
:10015400930405001384050083450400638A0500A5
:100164001304140013850400EFF0DFF96FF0DFFED1
:100174008320C10003248100832441001301010171
:1001840067800000B7470F0093870724B3D5F502B3
:10019400B7C70000938787FF3306F600832706005E
:1001A4003385A5023305F50083270600B307F54020
:1001B400E3DC07FE67800000130101FF2326110022
:1001C4002324810023229100930405001304C00119
:1001D4006F008002B3D7840013F7F700B71700F954
:1001E40093874789B387E70083C50700370501F87C
:1001F400EFF05FF11304C4FFE35E04FC9305A00079
:10020400370501F8EFF01FF09305D000370501F82A
:10021400EFF05FEF8320C1000324810083244100B9
:100224001301010167800000130101FF232611005F
:1002340093050500370501F8EFF09FF09305A00042
:10024400370501F8EFF01FEC9305D000370501F8EE
:10025400EFF05FEB8320C100130101016780000010
:10026400130101FF232611002324810013840500B8
:1002740093050500370501F8EFF09FEC1305040022
:10028400EFF09FF38320C1000324810013010101D7
:1002940067800000130101FF23261100B70610F840
:1002A40083A786003707F9FF1307F7FFB3F7E700C3
:1002B40013150501370707003375E5003365F500AD
:1002C40023A4A600371500F91305858AEFF0DFF59E
:1002D4008320C1001301010167800000130101FFA5
:1002E400232611001375F503B70710F823AEA704EE
:1002F400371500F91305058CEFF01FF38320C100B7
:100304001301010167800000130101FF232611007E
:100314002324810023229100B70410F803A484004D
:10032400B707008013C7F7FF3374E400B367F40022
:1003340023A4F4003706B0F8B7F5FA02938505084C
:1003440013051000EFF01FE423A48400371500F90F
:100354001305458DEFF05FED8320C1000324810078
:10036400832441001301010167800000130101FF90
:10037400232611002324810023229100B71400F9BD
:100384001385C48FEFF05FEA370410F883258406E1
:10039400371500F913054591EFF09FEC8325C4064A
:1003A400371500F91305C592EFF09FEB83258408F8
:1003B400371500F913050594EFF09FEA8325C40867
:1003C400371500F913050595EFF09FE98325440BD4
:1003D400371500F913050596EFF09FE88325840B84
:1003E400371500F913054597EFF09FE78325C40BF4
:1003F400371500F913050599EFF09FE68325C40925
:10040400371500F91305C59AEFF09FE58325040716
:10041400371500F91305459CEFF09FE48325040884
:10042400371500F91305059EEFF09FE38325440873
:10043400371500F91305859FEFF09FE21385C48FEC
:10044400EFF09FDE8320C100032481008324410058
:100454001301010167800000130101FF232611002D
:10046400EFF05FE31305C000EFF05FE78320C10006
:100474001301010167800000130101FF232611000D
:1004840023248100138405001377F5011367077093
:10049400B70710F823A4E71023A6B710130720000A
:1004A40023A2E71093050500371500F9130505A1EC
:1004B400EFF01FDB93050400371500F9130505A2BF
:1004C400EFF01FDA8320C10003248100130101012E
:1004D40067800000130101FF2326110023248100FB
:1004E40023229100930405009377F50193E70770A5
:1004F400370410F82324F410930710002322F41077
:100504003706B0F8B7F5FA02938505081305803E5F
:10051400EFF05FC70324041193850400371500F935
:10052400130505A3EFF0DFD393050400371500F995
:10053400130505A4EFF0DFD2130504008320C100E6
:10054400032481008324410013010101678000001A
:10055400130101FE232E1100232C8100232A910074
:1005640023282101232631012324410113040500FA
:1005740013890500371500F9130505A5EFF0DFCA47
:10058400930580161305F001EFF01FEF378A000082
:1005940093050A041305E001EFF01FEEB7490000CC
:1005A4009385E9011305E001EFF01FED1305F00158
:1005B400EFF05FF2B7050100938505F0B374B50061
:1005C4001374F4001379F90093050400371500F946
:1005D4001305C5A6EFF0DFC813144400B3659400F7
:1005E400B3E525011305F001EFF01FE99305EA01D6
:1005F4001305E001EFF05FE89385E9011305E001DD
:10060400EFF09FE71305F001EFF0DFEC9315050120
:1006140093D50501371500F9130505A8EFF05FC45C
:100624008320C101032481018324410103290101A1
:100634008329C100032A810013010102678000009D
:10064400130101FF23261100371500F9130545A9ED
:10065400EFF09FBD13050000EFF0DFE71305200066
:10066400EFF05FE713053000EFF0DFE69305801647
:100674001305F001EFF05FE0B785000093850504F2
:100684001305E001EFF05FDF6F00C004371500F9D8
:10069400130505ABEFF05FB9130540008320C100DB
:1006A4001301010167800000371500F9130505AD3A
:1006B400EFF09FB7130520006FF05FFE3706B0F828
:1006C400B7F5FA0293850508378501001305056A15
:1006D400EFF05FAB13051001EFF0DFDFB727000089
:1006E400938707403377F500E31AF7FCB7C7000098
:1006F4003375F500B7870000E30AF5F8B747000043
:10070400E304F5FAE31C05FA371500F9130505AF00
:10071400EFF09FB1130510006FF05FF8130101FFB4
:1007240023261100B70710F8370701001307F7FF56
:1007340023AAE7201307F0FF23A8E72037F70000D8
:10074400130787AE23AEE7203767005E1307870CD5
:1007540023ACE7203707A8C09306471623A2D72265
:100764001307571623A4E722370715271307175231
:1007740023A6E7223707640023A6E72013074006D1
:1007840023A0E72223A8E72223A4072023A20720EB
:100794001307100023A4E72023A40720371500F92A
:1007A400130505B1EFF05FA88320C1001301010117
:1007B40067800000130101FF232611002324810018
:1007C400370410F8930710002320F420371500F99C
:1007D400130505B3EFF05FA53706B0F8B7F5FA02D5
:1007E4009385050813051000EFF0DF9923200420FA
:1007F400371500F91305C5B4EFF01FA32322042015
:10080400EFF09FB0EFF09FF13706B0F8B7F5FA02BA
:100814009385050837C52D001305056CEFF09F96E9
:10082400EFF0DFB46FF05FFE130101FF2326110028
:10083400B795000013050000EFF01FC4B7150000C2
:1008440013050000EFF05FC3371500F9130585B6F3
:10085400EFF09F9D8320C100130101016780000018
:10086400130101FF2326110013051000EFF0DFFB35
:1008740013850180EFF05F9B9305F0001305F000F2
:10088400EFF01FCDEFF0DFDBEFF01FBDEFF09FF2D5
:1008940030313233343536373839414243444546B2
:1008A40000000000496E666F203A20536574204DA5
:1008B40061632053706565642E000000496E666FA5
:1008C400203A20536574204D6163204950472E001F
:1008D400496E666F203A204D6163205265736574DA
:1008E400205374617469737469637320436F756E04
:1008F400746572732E0000002D2D2D2D2D2D2D2DA0
:100904002D2D2D2D2D2D2D2D2D2D2D2D00000000C7
:10091400614672616D65735472616E736D6974744E
:1009240065644F4B203A0000614672616D657352F5
:10093400656365697665644F4B203A006966496E64
:100944004572726F7273203A0000000069664F7539
:10095400744572726F7273203A00000065746865A2
:10096400725374617473506B7473203A0000000006
:1009740065746865725374617473556E64657273DB
:10098400697A65506B7473203A0000006574686579
:100994007253746174734F76657273697A65506BC0
:1009A4007473203A0000000061527846696C7465E3
:1009B400724672616D65734572726F7273203A008C
:1009C400614672616D65436865636B5365717565F6
:1009D4006E63654572726F7273203A006154785089
:1009E400415553454D41434374726C4672616D6584
:1009F40073203A0061527850415553454D41434369
:100A040074726C4672616D6573203A00577220509F
:100A140068792041646472203A20000057722050A3
:100A240068792044617461203A20000052642050A7
:100A340068792041646472203A200000526574751C
:100A4400726E2056616C7565203A20005374617291
:100A54007420496E666F203A20536574205068797B
:100A64002044656C61792E005365747570204E6561
:100A7400772056616C7565203D20000052656164E5
:100A8400204E65772056616C7565203D200000007E
:100A9400576169742045746865726E6574204C6989
:100AA4006E6B2075702E2E2E00000000496E666F4E
:100AB400203A20506879204C696E6B207570206F45
:100AC4006E20313030304D6270732E00496E666F87
:100AD400203A20506879204C696E6B207570206F25
:100AE4006E203130304D6270732E0000496E666F97
:100AF400203A20506879204C696E6B207570206F05
:100B04006E2031304D6270732E000000496E666FA6
:100B1400203A20536574205061747465726E2047C6
:100B2400656E657261746F722E000000496E666FA7
:100B3400203A20417373657274206D61632072657D
:100B44007365742000000000496E666F203A2044EB
:100B540065617373657274206D616320726573657A
:100B640074200000506879204175746F204E6567C9
:100B74006F746961746564202100000074736520DA
:100B840064656D6F2021000000000000000000007B
:060B94000000000000005B
:04000005F9000000FE
:00000001FF
