:02000004F90001
:10000000971100009381017417210000130181F5FD
:1000100017150000130545C2971500009385C5C14B
:100020001386C18163FCC5008322050023A055000F
:100030001305450093854500E3E8C5FE1385C1819E
:10004000938501826378B5002320050013054500E0
:10005000E36CB5FEEF000001EF0000536F000000FD
:0400600067800000B5
:10006400130101FF23248100232021011714000020
:10007400130444BC171900001309C9BB3309894090
:10008400232611002322910013592940630E0900ED
:100094009304000083270400938414001304440091
:1000A400E7800700E31899FE17140000130484B8CE
:1000B40017190000130909B8330989401359294055
:1000C400630E090093040000832704009384140042
:1000D40013044400E7800700E31899FE8320C1005D
:1000E4000324810083244100032901001301010139
:1000F4006780000003254500135505011375F50FAE
:1001040067800000130101FF2326110023248100CE
:1001140023229100130405009384050013050400B1
:10012400EFF05FFDE30C05FE232094008320C10063
:10013400032481008324410013010101678000002E
:10014400130101FF2326110023248100232291009F
:10015400930405001384050083450400638A0500A5
:100164001304140013850400EFF0DFF96FF0DFFED1
:100174008320C10003248100832441001301010171
:1001840067800000B7470F0093870724B3D5F502B3
:10019400B7C70000938787FF3306F600832706005E
:1001A4003385A5023305F50083270600B307F54020
:1001B400E3DC07FE67800000130101FF2326110022
:1001C4002324810023229100930405001304C00119
:1001D4006F008002B3D7840013F7F700B71700F954
:1001E400938747C3B387E70083C50700370501F842
:1001F400EFF05FF11304C4FFE35E04FC9305A00079
:10020400370501F8EFF01FF09305D000370501F82A
:10021400EFF05FEF8320C1000324810083244100B9
:100224001301010167800000130101FF232611005F
:1002340093050500370501F8EFF09FF09305A00042
:10024400370501F8EFF01FEC9305D000370501F8EE
:10025400EFF05FEB8320C100130101016780000010
:10026400130101FF232611002324810013840500B8
:1002740093050500370501F8EFF09FEC1305040022
:10028400EFF09FF38320C1000324810013010101D7
:1002940067800000130101FF23261100B70610F840
:1002A40083A786003707F9FF1307F7FFB3F7E700C3
:1002B40013150501370707003375E5003365F500AD
:1002C40023A4A600371500F9130585C4EFF0DFF564
:1002D4008320C1001301010167800000130101FFA5
:1002E400232611001375F503B70710F823AEA704EE
:1002F400371500F9130505C6EFF01FF38320C1007D
:100304001301010167800000130101FF232611007E
:100314002324810023229100B70410F803A484004D
:10032400B707008013C7F7FF3374E400B367F40022
:1003340023A4F4003706B0F8B7F5FA02938505084C
:1003440013051000EFF01FE423A48400371500F90F
:10035400130545C7EFF05FED8320C100032481003E
:10036400832441001301010167800000130101FF90
:10037400232611002324810023229100B71400F9BD
:100384001385C4C9EFF05FEA370410F883258406A7
:10039400371500F9130545CBEFF09FEC8325C40610
:1003A400371500F91305C5CCEFF09FEB83258408BE
:1003B400371500F9130505CEEFF09FEA8325C4082D
:1003C400371500F9130505CFEFF09FE98325440B9A
:1003D400371500F9130505D0EFF09FE88325840B4A
:1003E400371500F9130545D1EFF09FE78325C40BBA
:1003F400371500F9130505D3EFF09FE68325C409EB
:10040400371500F91305C5D4EFF09FE583250407DC
:10041400371500F9130545D6EFF09FE4832504084A
:10042400371500F9130505D8EFF09FE38325440839
:10043400371500F9130585D9EFF09FE21385C4C978
:10044400EFF09FDE8320C100032481008324410058
:100454001301010167800000130101FF232611002D
:10046400EFF05FE31305C000EFF05FE78320C10006
:100474001301010167800000130101FF232611000D
:10048400B70710F8370701001307F7FF23AAE7207F
:100494001307F0FF23A8E72037F70000130787AE00
:1004A40023AEE7203767005E1307870C23ACE720F1
:1004B4003707A8C09306471623A2D7221307571657
:1004C40023A4E722370715271307175223A6E72289
:1004D4003707640023A6E7201307400623A0E7227A
:1004E40023A8E72223A4072023A207201307100030
:1004F40023A4E72023A40720371500F9130505DBFF
:10050400EFF09FD28320C100130101016780000036
:10051400130101FF2326110023248100370410F85E
:10052400930710002320F420371500F9130505DD87
:10053400EFF09FCF3706B0F8B7F5FA0293850508B8
:1005440013051000EFF01FC423200420371500F911
:100554001305C5DEEFF05FCD23220420EFF0DFDAD0
:10056400EFF09FF13706B0F8B7F5FA029385050866
:1005740037C52D001305056CEFF0DFC0EFF01FDF6A
:100584006FF05FFE130101FF23261100371500F9F8
:10059400130585E0EFF05FC9EF004029371500F936
:1005A400130545E1EFF05FC8EF008016EFF0DFEAD6
:1005B400EFF01FF6B7470F0093870724B3D5F50272
:1005C400B7C70000938787FF3306F600832706002A
:1005D4003385A5023305F50083270600B307F540EC
:1005E400E3DC07FE67800000130101FF23261100EE
:1005F400232481009375F50193E50570370410F801
:1006040013058410EF000032930510001305441005
:10061400EF0040313706B0F8B7F5FA0293850508C4
:100624001305803EEFF01FF913050411EF000030AD
:100634008320C100032481001301010167800000AD
:10064400130101FF2326110023248100232291009A
:10065400938405009375F50193E50570370410F84C
:1006640013058410EF00002C938504001305C410B7
:10067400EF00402B9305200013054410EF00802A5F
:100684008320C1000324810083244100130101015C
:1006940067800000130101FF23261100EFF0DFF44F
:1006A4008320C1001301010167800000130101FFD1
:1006B40023261100EFF0DFF83706B0F8B7F5FA0299
:1006C4009385050813054006EFF0DFEE8320C10093
:1006D4001301010167800000130101FF23261100AB
:1006E4009315050193D505011305F001EFF05FF5AE
:1006F4003706B0F8B7F5FA029385050813054006E6
:10070400EFF05FEB8320C10013010101678000005B
:10071400130101FF23261100232481001305A001E6
:10072400EFF05FF793774500639007023706B0F860
:10073400B7F5FA02938505083725000013050571FE
:10074400EFF05FE76FF09FFD13040500371500F924
:10075400130585E2EF00C03C9377040313070002FE
:100764006388E702130700016386E706639C070AB0
:1007740093778400638C070893050400371500F908
:10078400130545EFEF00C039130510006F00000298
:10079400937784006384070293050400371500F9F6
:1007A400130545E3EF00C037130540008320C10063
:1007B40003248100130101016780000093050400F4
:1007C400371500F9130545E6EF00803513054000A1
:1007D4006FF0DFFD93778400638E070093050400B8
:1007E400371500F9130545E9EF00803313052000A0
:1007F4006FF0DFFB93050400371500F9130545EC92
:10080400EF000032130520006FF05FFA9305040037
:10081400371500F9130505F2EF00803013051000B9
:100824006FF0DFF8130520006FF05FF8130101FF8C
:1008340023261100232481002322910013050000A4
:10084400EFF09FE9B795000013050000EFF01FE6F5
:100854003706B0F8B7F4FA029385040837C40000E9
:1008640013050435EFF01FD5B7150000130500007C
:10087400EFF0DFE33706B0F8938504081305043579
:10088400EFF05FD3B7140000138534A4EFF0DFE476
:1008940037840000930514011305B001EFF01FE144
:1008A400B7D500009385F5731305C001EFF01FE081
:1008B400138544D0EFF05FE29305B42013050001E3
:1008C400EFF0DFDE8320C100032481008324410094
:1008D400130101016780000003254500135505013C
:1008E4001375F50F67800000130101FF2326110023
:1008F400232481002322910013040500938405001E
:1009040013050400EFF05FFDE30C05FE23209400C3
:100914008320C100032481008324410013010101C9
:10092400678000002320B5006780000003250500D0
:1009340067800000130101FF232611002324810096
:10094400130405009375F50F370501F8EFF0DFF98F
:10095400130504008320C100032481001301010155
:1009640067800000130101FF23261100EFF09FFCB4
:100974008320C1001301010167800000130101FD00
:1009840023261102232481022322910293040500C9
:1009940063460500130401006F00C0021305D00272
:1009A400EFF05FFCB30490406FF0DFFE1307A0008C
:1009B400B3E7E402938707032300F400B3C4E4021B
:1009C40013041400E39404FE93070100E300F4FE0F
:1009D4006F0000011304F4FF03450400EFF09FF8D7
:1009E40093070100E318F4FE8320C102032481026B
:1009F400832441021301010367800000130101FFF6
:100A04002326110023248100130405000345040058
:100A14006308050013041400EFF0DFF16FF01FFF0B
:100A24008320C100032481001301010167800000B9
:100A3400130101FF23261100232481001304050060
:100A44000345040063080500EFF0DFEE130414000F
:100A54006FF01FFF1305A000EFF0DFED130500009A
:100A64008320C10003248100130101016780000079
:100A7400130101FF23261100232481002322910066
:100A840093040500370400401304F4FF3384850005
:100A94001314240063460402B3D7840013F7F70049
:100AA400B71700F9938747C3B387E70083C50700E7
:100AB400370501F8EFF05FE31304C4FF6FF09FFD07
:100AC4008320C10003248100832441001301010118
:100AD40067800000130101FF232611009305000025
:100AE4009307700063C4B70213972500930700FFB0
:100AF400B397E700B377F500638607009385150085
:100B04006FF01FFE938515006F0080009305200091
:100B1400EFF01FF68320C10013010101678000007C
:100B2400130101FC232E1100232C8100232A9100A0
:100B3400930405002322B1022324C1022326D102F7
:100B44002328E102232AF102232C0103232E11037B
:100B5400930741022326F100130400006F00C00133
:100B64008327C100138747002326E10003A507005C
:100B7400EFF05FDF13041400B387840003C507009C
:100B84006306050893075002630EF502EFF09FDD3C
:100B94006FF05FFE8327C100138747002326E1001F
:100BA40003A50700EFF09FE56FF0DFFC8327C1008A
:100BB400138747002326E10003A50700EFF01FDC9D
:100BC4006FF05FFB13041400B387840083C707002E
:100BD400E38207FA13073006E384E7F813073007C4
:100BE400E38AE7FA13074006E382E7FC130780076A
:100BF400E39AE7FC8327C100138747002326E1001B
:100C040003A50700EFF01FED6FF0DFF61305A0005A
:100C1400EFF05FD21305D000EFF0DFD18320C101E4
:100C2400032481018324410113010104678000002E
:100C3400303132333435363738394142434445460E
:100C440000000000496E666F203A20536574204D01
:100C540061632053706565642E000000496E666F01
:100C6400203A20536574204D6163204950472E007B
:100C7400496E666F203A204D616320526573657436
:100C8400205374617469737469637320436F756E60
:100C9400746572732E0000002D2D2D2D2D2D2D2DFC
:100CA4002D2D2D2D2D2D2D2D2D2D2D2D0000000024
:100CB400614672616D65735472616E736D697474AB
:100CC40065644F4B203A0000614672616D65735252
:100CD400656365697665644F4B203A006966496EC1
:100CE4004572726F7273203A0000000069664F7596
:100CF400744572726F7273203A00000065746865FF
:100D0400725374617473506B7473203A0000000062
:100D140065746865725374617473556E6465727337
:100D2400697A65506B7473203A00000065746865D5
:100D34007253746174734F76657273697A65506B1C
:100D44007473203A0000000061527846696C74653F
:100D5400724672616D65734572726F7273203A00E8
:100D6400614672616D65436865636B536571756552
:100D74006E63654572726F7273203A0061547850E5
:100D8400415553454D41434374726C4672616D65E0
:100D940073203A0061527850415553454D414343C5
:100DA40074726C4672616D6573203A00496E666FA9
:100DB400203A20536574205061747465726E204724
:100DC400656E657261746F722E000000496E666F05
:100DD400203A20417373657274206D6163207265DB
:100DE4007365742000000000496E666F203A204449
:100DF40065617373657274206D61632072657365D8
:100E0400742000007473652064656D6F20210000F8
:100E140057616974696E67204C696E6B2055702E3A
:100E24002E2E00004C696E6B656420557000000026
:100E34004C696E6B20506172746E65722046756CDD
:100E44006C206475706C65782031303030204D62D0
:100E540070732052656732362030782578000000A0
:100E64004C696E6B20506172746E65722068616C9F
:100E740066206475706C65782031303030204D62A6
:100E84007073205265673236203078257800000070
:100E94004C696E6B20506172746E65722046756C7D
:100EA4006C206475706C657820313030204D627030
:100EB40073205265673236203078257800000000B0
:100EC4004C696E6B20506172746E65722068616C3F
:100ED40066206475706C657820313030204D627006
:100EE4007320526567323620307825780000000080
:100EF4004C696E6B20506172746E65722046756C1D
:100F04006C206475706C6578203130204D6270738C
:100F14002052656732362030782578004C696E6B34
:100F240020506172746E65722068616C662064750D
:100F3400706C6578203130204D6270732052656783
:100F440032362030782578000000000000000000D0
:060F540000000000000097
:04000005F9000000FE
:00000001FF
