:02000004F90001
:100000009721000093818186172100001301810848
:1000100017150000130545CD971500009385C5CC35
:100020001386C18163FCC5008322050023A055000F
:100030001305450093854500E3E8C5FE1385C1819E
:10004000938501826378B5002320050013054500E0
:10005000E36CB5FEEF000001EF00C05C6F00000034
:0400600067800000B5
:10006400130101FF23248100232021011714000020
:10007400130444C7171900001309C9C6330989407A
:10008400232611002322910013592940630E0900ED
:100094009304000083270400938414001304440091
:1000A400E7800700E31899FE17140000130484C3C3
:1000B40017190000130909C333098940135929404A
:1000C400630E090093040000832704009384140042
:1000D40013044400E7800700E31899FE8320C1005D
:1000E4000324810083244100032901001301010139
:1000F4006780000003254500135505011375F50FAE
:1001040067800000130101FF2326110023248100CE
:1001140023229100130405009384050013050400B1
:10012400EFF05FFDE30C05FE232094008320C10063
:10013400032481008324410013010101678000002E
:10014400130101FF2326110023248100232291009F
:10015400930405001384050083450400638A0500A5
:100164001304140013850400EFF0DFF96FF0DFFED1
:100174008320C10003248100832441001301010171
:1001840067800000B7470F0093870724B3D5F502B3
:10019400B7C70000938787FF3306F600832706005E
:1001A4003385A5023305F50083270600B307F54020
:1001B400E3DC07FE67800000130101FF2326110022
:1001C4002324810023229100930405001304C00119
:1001D4006F008002B3D7840013F7F700B71700F954
:1001E400938747CEB387E70083C50700370501F837
:1001F400EFF05FF11304C4FFE35E04FC9305A00079
:10020400370501F8EFF01FF09305D000370501F82A
:10021400EFF05FEF8320C1000324810083244100B9
:100224001301010167800000130101FF232611005F
:1002340093050500370501F8EFF09FF09305A00042
:10024400370501F8EFF01FEC9305D000370501F8EE
:10025400EFF05FEB8320C100130101016780000010
:10026400130101FF232611002324810013840500B8
:1002740093050500370501F8EFF09FEC1305040022
:10028400EFF09FF38320C1000324810013010101D7
:1002940067800000130101FF232611001375F50385
:1002A400B70710F823AEA704371500F9130585CF57
:1002B400EFF09FF78320C100130101016780000064
:1002C400130101FF23261100B70710F837070100B7
:1002D4001307F7FF23A4E7181307F0FF23A2E71877
:1002E40023A0A71837F70000130787AE23A8E70059
:1002F4003767005E1307870C23A6E70003A7870070
:100304001377F7BF9395950093F50520B3E5E500C2
:1003140023A4B700371500F91305C5D0EFF0DFF0BB
:100324008320C1001301010167800000130101FF54
:10033400232611002324810023229100B70410F8FE
:1003440003A48400B707008013C7F7FF3374E400E5
:10035400B367F40023A4F4003706B0F8B7F5FA0243
:100364009385050813051000EFF0DFE123A4840052
:10037400371500F9130545D2EFF01FEB8320C100B8
:1003840003248100832441001301010167800000DC
:10039400130101FF2326110023248100232291004D
:1003A400B71400F91385C4D4EFF01FE8370410F82C
:1003B40083258406371500F9130545D6EFF05FEA67
:1003C4008325C406371500F91305C5D7EFF05FE997
:1003D40083258408371500F9130505D9EFF05FE884
:1003E4008325C408371500F9130505DAEFF05FE734
:1003F4008325440B371500F9130505DBEFF05FE6A1
:100404008325840B371500F9130545DCEFF05FE510
:100414008325C40B371500F9130505DEEFF05FE4FF
:100424008325C409371500F91305C5DFEFF05FE331
:1004340083250407371500F9130545E1EFF05FE262
:1004440083250408371500F9130505E3EFF05FE190
:1004540083254408371500F9130585E4EFF05FE0C0
:100464001385C4D4EFF05FDC8320C1000324810032
:10047400832441001301010167800000130101FF7F
:1004840023261100930740006300F5029307200020
:10049400630CF502930710006308F5048320C10080
:1004A4001301010167800000B7450000938505141E
:1004B40013050000EF00C023371500F9130505E606
:1004C400EFF09FD66FF09FFDB76500009385051090
:1004D40013050000EF00C021371500F9130585E866
:1004E400EFF09FD46FF09FFBB74500009385051094
:1004F40013050000EF00C01F371500F9130505EBC5
:10050400EFF09FD26FF09FF9130101FF2326110032
:10051400B70710F8370701001307F7FF23AAE720EE
:100524001307F0FF23A8E72037F70000130787AE6F
:1005340023AEE7203767005E1307870C23ACE72060
:100544003707A8C09306471623A2D72213075716C6
:1005540023A4E722370715271307175223A6E722F8
:100564003707640023A6E7201307400623A0E722E9
:1005740023A8E72223A4072023A20720130710009F
:1005840023A4E72023A40720371500F9130585EDDC
:10059400EFF09FC98320C1001301010167800000AF
:1005A400130101FF2326110023248100232291003B
:1005B400370410F89304100023209420371500F911
:1005C400130585EFEFF05FC63706B0F8B7F5FA020A
:1005D4009385050813051000EFF0DFBA23200420EB
:1005E400371500F9130545F1EFF01FC423229420B9
:1005F4009305100013050000EFF09FCCEFF01FD31C
:100604003706B0F8B7F5FA029385050837C52D000B
:100614001305056CEFF01FB7EFF09FD76FF05FFE87
:10062400130101FF23261100371500F9130505F303
:10063400EFF09FBFEF00802A371500F91305C5F3CB
:10064400EFF09FBEEF00C017EFF05FE393051000DB
:1006540013051000EFF0DFC61305C000EFF09FC3D1
:10066400EFF01FF4B7470F0093870724B3D5F502C3
:10067400B7C70000938787FF3306F6008327060079
:100684003385A5023305F50083270600B307F5403B
:10069400E3DC07FE67800000130101FF232611003D
:1006A400232481009375F50193E50570370410F850
:1006B40013058410EF000032930510001305441055
:1006C400EF0040313706B0F8B7F5FA029385050814
:1006D4001305803EEFF01FF913050411EF000030FD
:1006E4008320C100032481001301010167800000FD
:1006F400130101FF232611002324810023229100EA
:10070400938405009375F50193E50570370410F89B
:1007140013058410EF00002C938504001305C41006
:10072400EF00402B9305200013054410EF00802AAE
:100734008320C100032481008324410013010101AB
:1007440067800000130101FF23261100EFF0DFF49E
:100754008320C1001301010167800000130101FF20
:1007640023261100EFF0DFF83706B0F8B7F5FA02E8
:100774009385050813054006EFF0DFEE8320C100E2
:100784001301010167800000130101FF23261100FA
:100794009315050193D505011305F001EFF05FF5FD
:1007A4003706B0F8B7F5FA02938505081305400635
:1007B400EFF05FEB8320C1001301010167800000AB
:1007C400130101FF23261100232481001305A00136
:1007D400EFF05FF793774500639007023706B0F8B0
:1007E400B7F5FA029385050837250000130505714E
:1007F400EFF05FE76FF09FFD13040500371500F974
:10080400130505F5EF00C03C9377040313070002BA
:100814006388E702130700016386E706639C070AFF
:1008240093778400638C070893050400371500F957
:100834001305C501EF00C039130510006F00000255
:10084400937784006384070293050400371500F945
:100854001305C5F5EF00C037130540008320C10020
:100864000324810013010101678000009305040043
:10087400371500F91305C5F8EF008035130540005E
:100884006FF0DFFD93778400638E07009305040007
:10089400371500F91305C5FBEF008033130520005D
:1008A4006FF0DFFB93050400371500F91305C5FE4F
:1008B400EF000032130520006FF05FFA9305040087
:1008C400371500F913058504EF0080301305100077
:1008D4006FF0DFF8130520006FF05FF8130101FFDC
:1008E40023261100232481002322910013050000F4
:1008F400EFF09FE9B795000013050000EFF01FE645
:100904003706B0F8B7F4FA029385040837C4000038
:1009140013050435EFF01FD5B715000013050000CB
:10092400EFF0DFE33706B0F89385040813050435C8
:10093400EFF05FD3B7140000138534A4EFF0DFE4C5
:1009440037840000930514011305B001EFF01FE193
:10095400B7D500009385F5731305C001EFF01FE0D0
:10096400138544D0EFF05FE29305B4201305000132
:10097400EFF0DFDE8320C1000324810083244100E3
:10098400130101016780000003254500135505018B
:100994001375F50F67800000130101FF2326110072
:1009A400232481002322910013040500938405006D
:1009B40013050400EFF05FFDE30C05FE2320940013
:1009C4008320C10003248100832441001301010119
:1009D400678000002320B500678000000325050020
:1009E40067800000130101FF2326110023248100E6
:1009F400130405009375F50F370501F8EFF0DFF9DF
:100A0400130504008320C1000324810013010101A4
:100A140067800000130101FF23261100EFF09FFC03
:100A24008320C1001301010167800000130101FD4F
:100A34002326110223248102232291029304050018
:100A440063460500130401006F00C0021305D002C1
:100A5400EFF05FFCB30490406FF0DFFE1307A000DB
:100A6400B3E7E402938707032300F400B3C4E4026A
:100A740013041400E39404FE93070100E300F4FE5E
:100A84006F0000011304F4FF03450400EFF09FF826
:100A940093070100E318F4FE8320C10203248102BA
:100AA400832441021301010367800000130101FF45
:100AB40023261100232481001304050003450400A8
:100AC4006308050013041400EFF0DFF16FF01FFF5B
:100AD4008320C10003248100130101016780000009
:100AE400130101FF232611002324810013040500B0
:100AF4000345040063080500EFF0DFEE130414005F
:100B04006FF01FFF1305A000EFF0DFED13050000E9
:100B14008320C100032481001301010167800000C8
:100B2400130101FF232611002324810023229100B5
:100B340093040500370400401304F4FF3384850054
:100B44001314240063460402B3D7840013F7F70098
:100B5400B71700F9938747CEB387E70083C507002B
:100B6400370501F8EFF05FE31304C4FF6FF09FFD56
:100B74008320C10003248100832441001301010167
:100B840067800000130101FF232611009305000074
:100B94009307700063C4B70213972500930700FFFF
:100BA400B397E700B377F5006386070093851500D4
:100BB4006FF01FFE938515006F00800093052000E1
:100BC400EFF01FF68320C1001301010167800000CC
:100BD400130101FC232E1100232C8100232A9100F0
:100BE400930405002322B1022324C1022326D10247
:100BF4002328E102232AF102232C0103232E1103CB
:100C0400930741022326F100130400006F00C00182
:100C14008327C100138747002326E10003A50700AB
:100C2400EFF05FDF13041400B387840003C50700EB
:100C34006306050893075002630EF502EFF09FDD8B
:100C44006FF05FFE8327C100138747002326E1006E
:100C540003A50700EFF09FE56FF0DFFC8327C100D9
:100C6400138747002326E10003A50700EFF01FDCEC
:100C74006FF05FFB13041400B387840083C707007D
:100C8400E38207FA13073006E384E7F81307300713
:100C9400E38AE7FA13074006E382E7FC13078007B9
:100CA400E39AE7FC8327C100138747002326E1006A
:100CB40003A50700EFF01FED6FF0DFF61305A000AA
:100CC400EFF05FD21305D000EFF0DFD18320C10134
:100CD400032481018324410113010104678000007E
:100CE400303132333435363738394142434445465E
:100CF40000000000496E666F203A20536574204D51
:100D04006163204950472E00496E666F203A205394
:100D14006574204D616320416464726573732E00B1
:100D2400496E666F203A204D616320526573657485
:100D3400205374617469737469637320436F756EAF
:100D4400746572732E0000002D2D2D2D2D2D2D2D4B
:100D54002D2D2D2D2D2D2D2D2D2D2D2D0000000073
:100D6400614672616D65735472616E736D697474FA
:100D740065644F4B203A0000614672616D657352A1
:100D8400656365697665644F4B203A006966496E10
:100D94004572726F7273203A0000000069664F75E5
:100DA400744572726F7273203A000000657468654E
:100DB400725374617473506B7473203A00000000B2
:100DC40065746865725374617473556E6465727387
:100DD400697A65506B7473203A0000006574686525
:100DE4007253746174734F76657273697A65506B6C
:100DF4007473203A0000000061527846696C74658F
:100E0400724672616D65734572726F7273203A0037
:100E1400614672616D65436865636B5365717565A1
:100E24006E63654572726F7273203A006154785034
:100E3400415553454D41434374726C4672616D652F
:100E440073203A0061527850415553454D41434314
:100E540074726C4672616D6573203A00496E666FF8
:100E6400203A205365742050687920313030304D59
:100E7400627073204C6F6F706261636B204D6F649E
:100E8400652E0000496E666F203A20536574205029
:100E94006879203130304D627073204C6F6F70620E
:100EA40061636B204D6F64652E000000496E666FB0
:100EB400203A20536574205068792031304D627097
:100EC40073204C6F6F706261636B204D6F64652E8D
:100ED40000000000496E666F203A2053657420506C
:100EE40061747465726E2047656E657261746F72A9
:100EF4002E000000496E666F203A204173736572BC
:100F040074206D61632072657365742000000000B5
:100F1400496E666F203A204465617373657274206C
:100F24006D616320726573657420000074736520BD
:100F340064656D6F2021000057616974696E6720D4
:100F44004C696E6B2055702E2E2E00004C696E6B12
:100F540065642055700000004C696E6B205061720E
:100F6400746E65722046756C6C206475706C65785F
:100F74002031303030204D62707320526567323634
:100F840020307825780000004C696E6B2050617227
:100F9400746E65722068616C66206475706C657827
:100FA4002031303030204D62707320526567323604
:100FB40020307825780000004C696E6B20506172F7
:100FC400746E65722046756C6C206475706C6578FF
:100FD40020313030204D62707320526567323620E4
:100FE40030782578000000004C696E6B20506172E7
:100FF400746E65722068616C66206475706C6578C7
:1010040020313030204D62707320526567323620B3
:1010140030782578000000004C696E6B20506172B6
:10102400746E65722046756C6C206475706C65789E
:10103400203130204D627073205265673236203083
:10104400782578004C696E6B20506172746E6572FD
:101054002068616C66206475706C6578203130207E
:101064004D627073205265673236203078257800DF
:0E10740000000000000000000000000000006E
:04000005F9000000FE
:00000001FF
