:02000004F90001
:10000000971100009381011F17210000130181A0A7
:100010001705000013054578970500009385C577FF
:100020001386C18163FCC5008322050023A055000F
:100030001305450093854500E3E8C5FE1385C1819E
:10004000938501826378B5002320050013054500E0
:10005000E36CB5FEEF000001EF0040716F0000009F
:0400600067800000B5
:10006400130101FF23248100232021011704000030
:1000740013044472170900001309C9713309894034
:10008400232611002322910013592940630E0900ED
:100094009304000083270400938414001304440091
:1000A400E7800700E31899FE170400001304846E28
:1000B400170900001309096E3309894013592940AF
:1000C400630E090093040000832704009384140042
:1000D40013044400E7800700E31899FE8320C1005D
:1000E4000324810083244100032901001301010139
:1000F4006780000003254500135505011375F50FAE
:1001040067800000130101FF2326110023248100CE
:1001140023229100130405009384050013050400B1
:10012400EFF05FFDE30C05FE232094008320C10063
:10013400032481008324410013010101678000002E
:10014400130101FF2326110023248100232291009F
:10015400930405001384050083450400638A0500A5
:100164001304140013850400EFF0DFF96FF0DFFED1
:100174008320C10003248100832441001301010171
:1001840067800000B7470F0093870724B3D5F502B3
:10019400B7C70000938787FF3306F600832706005E
:1001A4003385A5023305F50083270600B307F54020
:1001B400E3DC07FE67800000130101FF2326110022
:1001C4002324810023229100930405001304C00119
:1001D4006F008002B3D7840013F7F700B70700F964
:1001E40093874779B387E70083C50700370501F88C
:1001F400EFF05FF11304C4FFE35E04FC9305A00079
:10020400370501F8EFF01FF09305D000370501F82A
:10021400EFF05FEF8320C1000324810083244100B9
:100224001301010167800000130101FF232611005F
:1002340093050500370501F8EFF09FF09305A00042
:10024400370501F8EFF01FEC9305D000370501F8EE
:10025400EFF05FEB8320C100130101016780000010
:10026400130101FF232611002324810013840500B8
:1002740093050500370501F8EFF09FEC1305040022
:10028400EFF09FF38320C1000324810013010101D7
:1002940067800000130101FF23261100B70710F83F
:1002A400370701001307F7FF23A4E7181307F0FF2C
:1002B40023A2E71823A0A71837F70000130787AE77
:1002C40023A8E7003767005E1307870C23A6E7001F
:1002D40003A787001377F7BF9395950093F505203F
:1002E400B3E5E50023A4B700370500F91305857AC3
:1002F400EFF09FF38320C100130101016780000028
:10030400130101FF232611002324810023229100DD
:10031400B70410F803A48400B707008013C7F7FFDD
:100324003374E400B367F40023A4F4003706B0F890
:10033400B7F5FA029385050813051000EFF09FE462
:1003440023A48400370500F91305057CEFF0DFEDE5
:100354008320C1000324810083244100130101018F
:1003640067800000130101FF23261100232481006C
:1003740023229100B70400F91385847EEFF0DFEAAD
:10038400370410F883258406371500F91305058012
:10039400EFF01FED8325C406371500F91305858199
:1003A400EFF01FEC83258408371500F91305C58287
:1003B400EFF01FEB8325C408371500F91305C58337
:1003C400EFF01FEA8325440B371500F91305C584A4
:1003D400EFF01FE98325840B371500F91305058613
:1003E400EFF01FE88325C40B371500F91305C58703
:1003F400EFF01FE78325C409371500F91305858934
:10040400EFF01FE683250407371500F91305058B64
:10041400EFF01FE583250408371500F91305C58C93
:10042400EFF01FE483254408371500F91305458EC2
:10043400EFF01FE31385847EEFF01FDF8320C100FC
:10044400032481008324410013010101678000001B
:10045400130101FF232611002324810013840500C6
:100464001377F50113670770B70710F823A4E71093
:1004740023A6B7101307200023A2E7109305050055
:10048400371500F91305C58FEFF09FDD93050400C0
:10049400371500F91305C590EFF09FDC8320C100E8
:1004A400032481001301010167800000130101FF8F
:1004B40023261100232481002322910093040500A4
:1004C4009377F50193E70770370410F82324F410A9
:1004D400930710002322F4103706B0F8B7F5FA0298
:1004E400938505081305803EEFF0DFC9032404114A
:1004F40093850400371500F91305C591EFF05FD615
:1005040093050400371500F91305C592EFF05FD584
:10051400130504008320C1000324810083244100C7
:100524001301010167800000130101FE232E110055
:10053400232C8100232A9100232821012326310121
:10054400232441011304050013890500371500F91C
:100554001305C593EFF05FCD930580161305F001E5
:10056400EFF01FEF378A000093050A041305E0013A
:10057400EFF01FEEB74900009385E9011305E00190
:10058400EFF01FED1305F001EFF05FF2B705010086
:10059400938505F0B374B5001374F4001379F9006E
:1005A40093050400371500F913058595EFF05FCB2B
:1005B40013144400B3659400B3E525011305F00159
:1005C400EFF01FE99305EA011305E001EFF05FE89E
:1005D4009385E9011305E001EFF09FE71305F001AE
:1005E400EFF0DFEC9315050193D50501371500F9FC
:1005F4001305C596EFF0DFC68320C10103248101F2
:1006040083244101032901018329C100032A8100B4
:100614001301010267800000130101FF232611006A
:10062400B70710F8370701001307F7FF23AAE720DD
:100634001307F0FF23A8E72037F70000130787AE5E
:1006440023AEE7203767005E1307870C23ACE7204F
:100654003707A8C09306471623A2D72213075716B5
:1006640023A4E722370715271307175223A6E722E7
:100674003707640023A6E7201307400623A0E722D8
:1006840023A8E72223A4072023A20720130710008E
:1006940023A4E72023A40720371500F913050598A0
:1006A400EFF09FB88320C1001301010167800000AF
:1006B400130101FF2326110023248100232291002A
:1006C400370410F89304100023209420371500F900
:1006D4001305059AEFF05FB53706B0F8B7F5FA02DF
:1006E4009385050813051000EFF0DFA923200420EB
:1006F400371500F91305C59BEFF01FB3232294208F
:100704009305100013050000EFF0DFB8EFF05FBFB2
:100714003706B0F8B7F5FA029385050837C52D00FA
:100724001305056CEFF01FA6EFF0DFC36FF05FFE5B
:10073400130101FF23261100B795000013050000E3
:10074400EFF01FD1B715000013050000EFF05FD0E4
:10075400371500F91305859DEFF01FAD8320C10007
:100764001301010167800000130101FF232611001A
:1007740013051000EFF0DFFB13850180EFF0DFAA13
:100784009305F0001305F000EFF01FDAEFF05FF2CD
:1007940030313233343536373839414243444546B3
:1007A40000000000496E666F203A20536574204DA6
:1007B400616320416464726573732E00496E666FD1
:1007C400203A204D6163205265736574205374612F
:1007D4007469737469637320436F756E746572739F
:1007E4002E0000002D2D2D2D2D2D2D2D2D2D2D2DBB
:1007F4002D2D2D2D2D2D2D2D000000006146726113
:100804006D65735472616E736D69747465644F4B76
:10081400203A0000614672616D65735265636569D3
:100824007665644F4B203A006966496E4572726F73
:100834007273203A0000000069664F757445727245
:100844006F7273203A0000006574686572537461B6
:100854007473506B7473203A00000000657468650B
:10086400725374617473556E64657273697A6550FA
:100874006B7473203A000000657468657253746188
:1008840074734F76657273697A65506B7473203A2A
:100894000000000061527846696C746572467261AA
:1008A4006D65734572726F7273203A0061467261AE
:1008B4006D65436865636B53657175656E63654506
:1008C40072726F7273203A006154785041555345E7
:1008D4004D41434374726C4672616D6573203A00F6
:1008E40061527850415553454D41434374726C46AF
:1008F40072616D6573203A00577220506879204107
:10090400646472203A2000005772205068792044B1
:10091400617461203A2000005264205068792041BB
:10092400646472203A20000052657475726E205619
:10093400616C7565203A2000537461727420496EAD
:10094400666F203A20536574205068792044656CA2
:1009540061792E005365747570204E657720566159
:100964006C7565203D20000052656164204E6577FA
:100974002056616C7565203D20000000496E666F4D
:10098400203A20536574205061747465726E204758
:10099400656E657261746F722E000000496E666F39
:1009A400203A20417373657274206D61632072650F
:1009B4007365742000000000496E666F203A20447D
:1009C40065617373657274206D616320726573650C
:1009D40074200000506879204175746F204E65675B
:1009E4006F7469617465642021000000747365206C
:1009F40064656D6F2021000000000000000000000D
:060A0400000000000000EC
:04000005F9000000FE
:00000001FF
