:02000004F90001
:10000000971100009381814517210000130181C7DA
:10001000171500001305C58F971500009385458FB0
:100020001386C18163FCC5008322050023A055000F
:100030001305450093854500E3E8C5FE1385C1819E
:10004000938501826378B5002320050013054500E0
:10005000E36CB5FEEF000001EF0050086F000000F8
:0400600067800000B5
:10006400130101FF23248100232021011714000020
:100074001304C489171900001309498933098940F5
:10008400232611002322910013592940630E0900ED
:100094009304000083270400938414001304440091
:1000A400E7800700E31899FE171400001304048680
:1000B4001719000013098985330989401359294008
:1000C400630E090093040000832704009384140042
:1000D40013044400E7800700E31899FE8320C1005D
:1000E4000324810083244100032901001301010139
:1000F4006780000003254500135505011375F50FAE
:1001040067800000130101FF2326110023248100CE
:1001140023229100130405009384050013050400B1
:10012400EFF05FFDE30C05FE232094008320C10063
:10013400032481008324410013010101678000002E
:10014400130101FF2326110023248100232291009F
:10015400930405001384050083450400638A0500A5
:100164001304140013850400EFF0DFF96FF0DFFED1
:100174008320C10003248100832441001301010171
:1001840067800000B7470F0093870724B3D5F502B3
:10019400B7C70000938787FF3306F600832706005E
:1001A4003385A5023305F50083270600B307F54020
:1001B400E3DC07FE67800000130101FF2326110022
:1001C4002324810023229100930405001304C00119
:1001D4006F008002B3D7840013F7F700B71700F954
:1001E4009387C790B387E70083C50700370501F8F5
:1001F400EFF05FF11304C4FFE35E04FC9305A00079
:10020400370501F8EFF01FF09305D000370501F82A
:10021400EFF05FEF8320C1000324810083244100B9
:100224001301010167800000130101FF232611005F
:1002340093050500370501F8EFF09FF09305A00042
:10024400370501F8EFF01FEC9305D000370501F8EE
:10025400EFF05FEB8320C100130101016780000010
:10026400130101FF232611002324810013840500B8
:1002740093050500370501F8EFF09FEC1305040022
:10028400EFF09FF38320C1000324810013010101D7
:1002940067800000130101FF23261100B70610F840
:1002A40083A786003707F9FF1307F7FFB3F7E700C3
:1002B40013150501370707003375E5003365F500AD
:1002C40023A4A600371500F913050592EFF0DFF516
:1002D4008320C1001301010167800000130101FFA5
:1002E400232611001375F503B70710F823AEA704EE
:1002F400371500F913058593EFF01FF38320C10030
:100304001301010167800000130101FF232611007E
:100314002324810023229100B70410F803A484004D
:10032400B707008013C7F7FF3374E400B367F40022
:1003340023A4F4003706B0F8B7F5FA02938505084C
:1003440013051000EFF01FE423A48400371500F90F
:100354001305C594EFF05FED8320C10003248100F1
:10036400832441001301010167800000130101FF90
:10037400232611002324810023229100B71400F9BD
:1003840013854497EFF05FEA370410F88325840659
:10039400371500F91305C598EFF09FEC8325C406C3
:1003A400371500F91305459AEFF09FEB8325840870
:1003B400371500F91305859BEFF09FEA8325C408E0
:1003C400371500F91305859CEFF09FE98325440B4D
:1003D400371500F91305859DEFF09FE88325840BFD
:1003E400371500F91305C59EEFF09FE78325C40B6D
:1003F400371500F9130585A0EFF09FE68325C4099E
:10040400371500F9130545A2EFF09FE5832504078E
:10041400371500F91305C5A3EFF09FE483250408FD
:10042400371500F9130585A5EFF09FE383254408EC
:10043400371500F9130505A7EFF09FE213854497DC
:10044400EFF09FDE8320C100032481008324410058
:100454001301010167800000130101FF232611002D
:10046400EFF05FE31305C000EFF05FE78320C10006
:100474001301010167800000130101FF232611000D
:1004840023248100138405001377F5011367077093
:10049400B70710F823A4E71023A6B710130720000A
:1004A40023A2E71093050500371500F9130585A865
:1004B400EFF01FDB93050400371500F9130585A938
:1004C400EFF01FDA8320C10003248100130101012E
:1004D40067800000130101FF2326110023248100FB
:1004E40023229100930405009377F50193E70770A5
:1004F400370410F82324F410930710002322F41077
:100504003706B0F8B7F5FA02938505081305803E5F
:10051400EFF05FC70324041193850400371500F935
:10052400130585AAEFF0DFD393050400371500F90E
:10053400130585ABEFF0DFD2130504008320C1005F
:10054400032481008324410013010101678000001A
:10055400130101FE232E1100232C8100232A910074
:1005640023282101232631012324410113040500FA
:1005740013890500371500F9130585ACEFF0DFCAC0
:10058400930580161305F001EFF01FEF378A000082
:1005940093050A041305E001EFF01FEEB7490000CC
:1005A4009385E9011305E001EFF01FED1305F00158
:1005B400EFF05FF2B7050100938505F0B374B50061
:1005C4001374F4001379F90093050400371500F946
:1005D400130545AEEFF0DFC813144400B36594006F
:1005E400B3E525011305F001EFF01FE99305EA01D6
:1005F4001305E001EFF05FE89385E9011305E001DD
:10060400EFF09FE71305F001EFF0DFEC9315050120
:1006140093D50501371500F9130585AFEFF05FC4D5
:100624008320C101032481018324410103290101A1
:100634008329C100032A810013010102678000009D
:10064400130101FF23261100930580001305F00018
:10065400EFF01FF0371500F91305C5B0EFF0DFBC5C
:1006640013050000EFF01FE713052000EFF09FE6ED
:1006740013053000EFF01FE6930580161305F00113
:10068400EFF09FDFB7850000938505041305E001B3
:10069400EFF09FDE6F00C004371500F9130585B233
:1006A400EFF09FB8130540008320C100130101013E
:1006B40067800000371500F9130585B4EFF0DFB645
:1006C400130520006FF05FFE3706B0F8B7F5FA02A5
:1006D40093850508378501001305056AEFF09FAA85
:1006E40013051001EFF01FDFB727000093870740C1
:1006F4003377F500E31AF7FCB7C700003375F5004C
:10070400B7870000E30AF5F8B7470000E304F5FAF9
:10071400E31C05FA371500F9130585B6EFF0DFB0D1
:10072400130510006FF05FF8130101FF2326110079
:1007340023248100130405009305F0001305F00041
:10074400EFF01FE1930740006302F40293072000D7
:10075400630EF40293071000630AF4048320C100BB
:10076400032481001301010167800000B7450000E4
:100774009385051413050000EFF01FD0371500F919
:10078400130585B8EFF05FAA6FF05FFDB765000051
:100794009385051013050000EFF01FCE371500F9FF
:1007A400130505BBEFF05FA86FF05FFBB7450000D2
:1007B4009385051013050000EFF01FCC371500F9E1
:1007C400130585BDEFF05FA66FF05FF9130101FF1C
:1007D40023261100B70710F8370701001307F7FFA6
:1007E40023AAE7201307F0FF23A8E72037F7000028
:1007F400130787AE23AEE7203767005E1307870C25
:1008040023ACE7203707A8C09306471623A2D722B4
:100814001307571623A4E722370715271307175280
:1008240023A6E7223707640023A6E7201307400620
:1008340023A0E72223A8E72223A4072023A207203A
:100844001307100023A4E72023A40720371500F979
:10085400130505C0EFF05F9D8320C1001301010162
:1008640067800000130101FF232611002324810067
:10087400370410F8930710002320F420371500F9EB
:10088400130505C2EFF05F9A3706B0F8B7F5FA0220
:100894009385050813051000EFF0DF8E2320042054
:1008A400371500F91305C5C3EFF01F982322042060
:1008B400EFF09FA5EFF09FF13706B0F8B7F5FA0215
:1008C4009385050837C52D001305056CEFF09F8B44
:1008D400EFF0DFA96FF05FFE130101FF2326110083
:1008E4002324810013850180EFF01F94EFF05FD57E
:1008F4001304050013054000EFF01FE31305040083
:08090400EFF09FB5EFF01FF6C4
:10090C003031323334353637383941424344454639
:10091C0000000000496E666F203A20536574204D2C
:10092C0061632053706565642E000000496E666F2C
:10093C00203A20536574204D6163204950472E00A6
:10094C00496E666F203A204D616320526573657461
:10095C00205374617469737469637320436F756E8B
:10096C00746572732E0000002D2D2D2D2D2D2D2D27
:10097C002D2D2D2D2D2D2D2D2D2D2D2D000000004F
:10098C00614672616D65735472616E736D697474D6
:10099C0065644F4B203A0000614672616D6573527D
:1009AC00656365697665644F4B203A006966496EEC
:1009BC004572726F7273203A0000000069664F75C1
:1009CC00744572726F7273203A000000657468652A
:1009DC00725374617473506B7473203A000000008E
:1009EC0065746865725374617473556E6465727363
:1009FC00697A65506B7473203A0000006574686501
:100A0C007253746174734F76657273697A65506B47
:100A1C007473203A0000000061527846696C74656A
:100A2C00724672616D65734572726F7273203A0013
:100A3C00614672616D65436865636B53657175657D
:100A4C006E63654572726F7273203A006154785010
:100A5C00415553454D41434374726C4672616D650B
:100A6C0073203A0061527850415553454D414343F0
:100A7C0074726C4672616D6573203A005772205027
:100A8C0068792041646472203A200000577220502B
:100A9C0068792044617461203A200000526420502F
:100AAC0068792041646472203A20000052657475A4
:100ABC00726E2056616C7565203A20005374617219
:100ACC007420496E666F203A205365742050687903
:100ADC002044656C61792E005365747570204E65E9
:100AEC00772056616C7565203D200000526561646D
:100AFC00204E65772056616C7565203D2000000006
:100B0C00576169742045746865726E6574204C6910
:100B1C006E6B2075702E2E2E00000000496E666FD5
:100B2C00203A20506879204C696E6B207570206FCC
:100B3C006E20313030304D6270732E00496E666F0E
:100B4C00203A20506879204C696E6B207570206FAC
:100B5C006E203130304D6270732E0000496E666F1E
:100B6C00203A20506879204C696E6B207570206F8C
:100B7C006E2031304D6270732E000000496E666F2E
:100B8C00203A205365742050687920313030304D34
:100B9C00627073204C6F6F706261636B204D6F6479
:100BAC00652E0000496E666F203A20536574205004
:100BBC006879203130304D627073204C6F6F7062E9
:100BCC0061636B204D6F64652E000000496E666F8B
:100BDC00203A20536574205068792031304D627072
:100BEC0073204C6F6F706261636B204D6F64652E68
:100BFC0000000000496E666F203A20536574205047
:100C0C0061747465726E2047656E657261746F7283
:100C1C002E000000496E666F203A20417373657296
:100C2C0074206D6163207265736574200000000090
:100C3C00496E666F203A2044656173736572742047
:100C4C006D61632072657365742000007473652098
:100C5C0064656D6F202100000000000000000000A2
:060C6C0000000000000082
:04000005F9000000FE
:00000001FF
